:020000041000EA
:1000000000B5324B212058609868022188439860DF
:10001000D860186158612E4B002199600221596106
:100020000121F02299502B49196001219960352056
:1000300000F044F80222904214D00621196600F024
:1000400034F8196E01211966002018661A6600F04E
:100050002CF8196E196E196E052000F02FF8012189
:100060000842F9D1002199601B49196000215960AB
:100070001A491B48016001219960EB211966A021F2
:10008000196600F012F800219960164914480160C1
:100090000121996001BC002800D000471248134993
:1000A000086003C880F30888084703B5996A0420EC
:1000B0000142FBD001200142F8D103BD02B5186610
:1000C0001866FFF7F2FF186E186E02BD00000240BE
:1000D000000000180000070000035F00212200005C
:1000E000F4000018222000A00001001008ED00E03C
:1000F00000000000000000000000000074B24E7A12
:1001000000200420F7010010CB010010CD010010E9
:10011000C9010010C9010010C9010010C901001077
:10012000C9010010C9010010C9010010CF01001061
:10013000C9010010C9010010D1010010D301001045
:10014000C1010010C1010010C1010010C101001067
:10015000C1010010C1010010C1010010C101001057
:10016000C1010010C1010010C1010010C101001047
:10017000C1010010C1010010C1010010C101001037
:10018000C1010010C1010010C1010010C101001027
:10019000C1010010C1010010C1010010C101001017
:1001A000C1010010C1010010C1010010C101001007
:1001B000C1010010C1010010C1010010C1010010F7
:1001C000EFF30580103800BE00BE00BE00BE00BECA
:1001D00000BE00BEF2EB887190020010B402001065
:1001E0003802001090A31AE721482249086006C887
:1001F00081F30888104720480068002801D01C4877
:10020000F3E70DA40ECC002902D000F012F8F9E7B4
:100210001A491B4A002000E001C19142FCD1194952
:100220008847194988471949884700BEFDE701C931
:1002300001C29A42FBD37047B4020010E0000020D4
:1002400004080120D809011010080120E835012018
:10025000B03701100000042000000420B037011066
:10026000001004200010042000000000704700006F
:100270000000000008ED00E0000000D0E83501209B
:1002800074BD012059A100207D01002019A100208A
:1002900064260120702601207C260120882601206A
:1002A00094260120A0260120AC260120A0290120AF
:0402B000942901206C
:1002B400F8B5C0460448054B10B5834203D0044B3F
:1002C400002B00D0984710BDE8350120E835012007
:1002D4000000000006480749091A8B10C90FC91805
:1002E40010B5491003D0044B002B00D0984710BD23
:1002F400E8350120E83501200000000010B5074C66
:100304002378002B09D1FFF7D5FF054B002B02D032
:10031400044800E000BF0123237010BD7891012040
:100324000000000004080120054B10B5002B03D089
:100334000449054800E000BFFFF7CCFF10BDC046EC
:10034400000000007C91012004080120F0B5DE4685
:1003540057464E464546E0B587B002F049FF314B5B
:10036400186803F0ABFA05F0DFF80CF08BFC0123FE
:1003740005A900200B800AF07DFC05F031FA06F097
:1003840093FD294B294E9A46294B2A4F9B462A4BCB
:1003940002932A4B03932A4B99462A4B98460120F1
:1003A400002140420AF0E4FC05F0ACF93068002872
:1003B40010D053461C78FB23221F1A420AD1210075
:1003C40006F008FF039B0100009322005B4602989D
:1003D40002F0C8FF0023336006F0CAF94B463C68BC
:1003E4001D68002916D0FA220023920006F058FF57
:1003F400001B8542D3D84346641918783C600CF03E
:1004040059FC434601221B7853404246137003F0C3
:1004140033F9C4E7FA21890006F004FF001BA8425F
:10042400BDD3E8E7F82D01206EBD01204CBD0120AD
:1004340060BD012050BD01203CB7012004A901206A
:10044400FC2D012072BD0120FA22024B92001A6099
:100454007047C046FC2D0120FA2210B5024B1A60E9
:1004640002F03AFF10BDC046FC2D012010B5034B2D
:10047400034A1A6002F030FF10BDC046FC2D012073
:10048400C4090000FA22024B92001A607047C04669
:10049400FC2D0120F0B5CE46474680B54B790500CA
:1004A4000C0089B0042B08D00026022B14D0300095
:1004B40009B0C0BCB946B046F0BDCF78012F21D0F9
:1004C4000026022FF3D14B78012BF0D101AA13702F
:1004D4000BF070FD0600EAE7CB78012B3ED0022B2F
:1004E400E5D14B78022B50D0012BE0D189782D4BEC
:1004F4004900CB5A01AA1380210002230BF05AFDB4
:100504000600D4E74B789846012B35D00026022B01
:10051400CDD101AB0E20994610220021684408F089
:10052400DFFA4B4642461A806B461F4A1E81DA8028
:100534000A236B441A805E80EE221223D2016B449C
:100544001A805F8016236B441A805F804A461A2300
:10055400210028000BF02EFD0600A8E74B78012BA4
:10056400A5D18978114B01AA5B5C2100137001238A
:100574000BF020FD06009AE70D4B01AA1B680193BE
:1005840004230BF017FD060091E701AA1100094BA3
:1005940041CB41C10823210028000BF00BFD0600CC
:1005A40085E7C04660BD012080BBFFFF04A9012090
:1005B400F82D01205417012010B54B79022B03D0DC
:1005C4000020042B19D010BD4B780020012BFAD148
:1005D400CB78012B2DD0022BF5D1CB798C791B0252
:1005E4002343022BEFD1537810781B028A780343FC
:1005F4001648520083520120E5E74B78012BE2D1E3
:10060400CB78012BDFD1CB798C791B022343042BCC
:10061400D9D151781378090219439378D0781B04FF
:100624000B43000618430A4B186002F02FFE01200A
:10063400C9E7CB798C791B022343012BC3D100205A
:10064400044B10568A7898540120BCE760BD012001
:10065400F82D012004A901200B7910B5012B01D03C
:10066400012010BD8C78002CFAD1FA22034B9200A1
:100674001A6002F031FE024B1C60F1E7FC2D0120F0
:100684004CBD012010B50B79012B01D0012010BD08
:100694008B78002BFAD01921074A11600749084AC0
:1006A4005B5C137002F03EFE064B186802F0E4FD3A
:1006B4000022054B1A60E9E7FC2D01204F170120A9
:1006C4006EBD0120F82D01204CBD0120054B0A0010
:1006D40010B5190000200BF061F9034B18600120DC
:1006E40010BDC0463CB701204CBD012000487047F6
:1006F4000023012000487047FC21012070B5002828
:1007040022D0052829D8164B8000C55828000FF0A0
:1007140015FAC0B2041C1F2814D8C026E4B2631C06
:10072400DBB25B00B6001E43002808D000230D4A4C
:10073400E95C01331180D9B202328C42F8D80A48FC
:10074400068070BD1F24E8E7C126054B0222054838
:10075400196808F0CBF9B600F1E70020F1E7C046CC
:10076400002E01207696012074960120F0B5C6462D
:10077400150080460F001600140000B508358AB035
:1007840020000621013405F03BF8A542F8D10123ED
:100794003200009341461F4807330CF08FFB3400AE
:1007A4002000032105F056F820000121013405F052
:1007B40041F8A542F4D1002380220593F823520284
:1007C4005B0202920393C02302A91B03102206A812
:1007D400049308F08BF93A00BB1C12321203DB01BC
:1007E400134306A9102202A8079308F07FF9802377
:1007F4001B0433430593084B3A000493A023DB0204
:100804000293414602AB03480CF0B2FB0AB080BC31
:10081400B846F0BD0000205000000640F0B54E463A
:1008240045465746DE468446E0B585B00800029149
:100834000093591663461B680392C91863461A60ED
:100844006246D268441A9146624612694D469246FF
:100854002D11A846554658689B682D129E103618CF
:100864004644A84662464644761852692411002E2E
:1008740001DC00F0E3FC012A01D100F0D8FC1422D1
:10088400FC4E904604320192173A9D128E1B761B41
:100894004D4630181B18EE119E1B4E449D10AB465E
:1008A400B2443511A946554683442D12D944AB466A
:1008B4000919D94489444D46002D01DC00F0C3FEDA
:1008C400012A01D100F05BFFEA4A914601224D461C
:1008D4004D1BA9469D12AB464D465F46ED1BA946EE
:1008E40081444B44F011181A861950468719981000
:1008F400834630118246CB443812DA448346611869
:10090400DA448A445046002801DC00F0BFFE012A84
:1009140001D000F0B6FED848824655464D1BAA4683
:100924009D12AB46554658462D1AAA46CA4445461A
:100934005344F011181A81461543AD004E44A8469D
:100944009D10AB463511A946F019D3440512D9447C
:10095400AB466118D94489444D46002D01DC00F0B2
:1009640049FE013A551EAA41C44D52422A40C24D85
:10097400A9464A449D128A1A521B92445344F211C6
:100984009A1A96194546012215432A009D10A84635
:100994003511A94680190512D044C844A9466118E6
:1009A400C84488444546002D01DC00F081FEB24D68
:1009B400A84645464D1BA8469D12A94645464F46A6
:1009C400ED1BA846C2445344F5115D1BA84646449A
:1009D400B14604261201324317004A4612119046CA
:1009E40048449E10564402124644904661184644B8
:1009F4007618002E01DC00F056FE9F4A0126904630
:100A040045464D1BA8469D12AB4645465A46AD1A6F
:100A1400A8464A46D0444344D2119A1A92469D109D
:100A2400CA44AB4655462D11A9465044C344051249
:100A3400D944AB466118D94489443A004D463243FF
:100A4400002D01DC00F0ABFD013E35006E426E412D
:100A54008B4D76422E40874D1201A9464E449D127D
:100A64008E1B761B5546B0444344EE119E1BB24484
:100A740004263243170052461211914650449E10E8
:100A8400464402124E44914661184E447618002E94
:100A940001DC00F003FE784A012691464D464D1BC9
:100AA400A9469D12AB464D465A46AD1AA946524632
:100AB400C1444B44D2119A1A90469D10D044AB467F
:100AC40045462D11AA464044CB440512DA44AB46B0
:100AD4000919DA448A443A0055463243002D01DCB0
:100AE40000F032FD013E35006E426E41644D7642A7
:100AF4002E40604D1201AA4656449D128E1B761B51
:100B04004546B1444B44EE119E1BB0440426324387
:100B1400170042461211924640449E104E4402125F
:100B240056449246611856447618002E01DC00F0B3
:100B3400F7FD514A0126924655464D1BAA469D1281
:100B4400AB4655465A46AD1AAA464246CA44534491
:100B5400D2119A1A91469D10C144AB464D462D11AF
:100B6400A8464844D3440512D844AB466118D84437
:100B740088443A0045463243002D01DC00F0B9FCBC
:100B8400013E35006E426E413D4D76422E40394D58
:100B94001201A84646449D128E1B761B4D46B24454
:100BA4005344EE119E1BB1440426324317004A46B7
:100BB4001211904648449E105644021246449046F0
:100BC400611846447618002E01DC00F0A4FD2A4A80
:100BD4000126904645464D1BA8469D12AB46454608
:100BE4005A46AD1AA8464A46D0444344D2119A1AEA
:100BF40092469D10CA44AB4655462D11A946504411
:100C0400C3440512D944AB466118D94489443A0017
:100C14004D463243002D01DC00F040FC013E35001E
:100C24006E426E41164D76422E40124D1201A94677
:100C34004E449D128E1B761B5546B0444344EE1120
:100C44009E1BB244042632431700524612119146A9
:100C540050449E10464402124E44914661184E443C
:100C64007618002E01DC00F051FD034A012691465E
:100C740008E0C04647846B0000FF7F004785EBFF18
:100C8400B97A14004D464D1BA9469D12AB464D46FC
:100C94005A46AD1AA9465246C1444B44D2119A1A37
:100CA40090469D10D044AB4645462D11AA4640447B
:100CB400CB440512DA44AB466118DA448A443A005C
:100CC40055463243002D00DCC2E3013E35006E423E
:100CD4006E41F84D76422E40F74D6418AA465644AC
:100CE4009D128E1B761B4546B1444B44EE119E1B50
:100CF400B0444546042611019A10404431434A4405
:100D04002E119219061292191219002A01DC00F010
:100D1400F9FC0126E94AA21A9C12121B4A44924683
:100D2400424631435344D211019102999A1A4244E2
:100D34008846009C03992404641644440F1B111133
:100D4400884680189D105544011245448846454400
:100D54002D193F11002D00DC62E3142100910431B0
:100D64008846012E01D100F00EFDD34901268946A3
:100D74004946611A894699128B4649465D46491B84
:100D84008946D1444B44D111591A8A469910524488
:100D94008A4611118B4610180112CA44DA448B4654
:100DA400E419DA44A2445146002900DC15E3013E6B
:100DB400711E8E41C24976420E40C049884646445F
:100DC4009912A61B761AB1444B44D6119E1BB61831
:100DD40031118846821998104844111240448846BB
:100DE4003C1940440019002801DC00F09EFCB34982
:100DF400012088464146611A884699128A4641462E
:100E04005546491B8846C8444344F111591A89463A
:100E1400009D4E440543A9008B4699108946311123
:100E24008A46B2181112C144D1448A463C19D144AD
:100E3400A1444946002900DCC8E2012801D100F0A0
:100E4400AAFC9D49012089464946611A894699129E
:100E54008A4649465546491B8946C1445D464B442A
:100E6400F111591A88460543A90046448B46991046
:100E7400884631118A4692191112C844D0448A46D0
:100E84003C19D044A0444146002900DC97E20128E3
:100E940001D100F07CFC8849012088464146611A52
:100EA400884699128A4641465546491B8846C84495
:100EB4005D464344F111591A89460543A9004E443D
:100EC4008B469910894631118A4692191112C144F0
:100ED400D1448A463C19D144A1444946002900DC46
:100EE40066E2012801D100F066FC734901208946BD
:100EF4004946611A894699128A4649465546491B0C
:100F04008946C1445D464B44F111591A884605434C
:100F1400A90046448B469910884631118A46921995
:100F24001112C844D0448A463C19D044A0444146D6
:100F3400002900DC35E2012801D100F038FC5E49CB
:100F4400012088464146611A884699128A464146DC
:100F54005546491B8846C8445D464344F111591A15
:100F640089460543A9004E448B46991089463111A0
:100F74008A4692191112C144D1448A463C19D1447B
:100F8400A1444946002900DC04E2012801D100F013
:100F94000AFC4949012089464946611A8946991241
:100FA4008A4649465546491B8946C1444B44F1117A
:100FB400591A884699104644884631118A4692192E
:100FC4001112C844D0448A463C19D044A0445D461A
:100FD40041460543002900DCB5E10138411E884142
:100FE40037494042084035492D018846404499120A
:100FF400201A401A81444B44F011181A801904260F
:1010040001118846354312189E104E44111246446D
:1010140088463C1946443619AB46002E00DDBEE333
:101024002849022688464146611A884699128A460A
:1010340041465546491B8846C8444344C111591A80
:10104400894681444946C911009199105D468B46F1
:10105400494609118A464A44C3441112DA448B466C
:101064003C19DA44A2445146354338192D0100296C
:1010740000DC40E104210D43AB46012E00D159E3CD
:1010840010498A4699125444641A444400991B191D
:101094005E1A4E44B04641460911894642449E10A8
:1010A400361911124E4489464E443618002E00DC7F
:1010B4005AE309E0B97A140047846B0000FF7F000B
:1010C4004785EBFFB97B94FFDB49012689464946F6
:1010D400411A894699128A4649465546491B89460A
:1010E40041464C44E318C911591A89469910C84419
:1010F4008946414609118A4642441112A144D14409
:101104008A463818D14481445D464946354300290E
:1011140000DCC6E0013E31004E424E41C7497642F2
:101124000E40C7492D0189464E449912861B761AF2
:10113400414636199B19CC111C1BA044414604247A
:1011440009118946254342449C10A41911124C44A8
:10115400894638184C442418AB46002C00DD0AE3B9
:10116400B849022489464946411A894699128A4651
:1011740049465546491B894641464E449B19C91167
:10118400591A8946C84442444146914609118A463F
:1011940049469A109219091252448A465D463818F3
:1011A400524412182543002A53DD013C6242544143
:1011B400A349A24A8A466442224052449A469C1257
:1011C4004346821A121B92199244DC1153461C1B8B
:1011D4004B4644441E1904233F1828011843534620
:1011E4009B1025119B185B1935125B19DB19002B19
:1011F40000DDBDE20225934B61464D615146FB1A69
:101204008F12DB1B9B186246536053449360E211B8
:101214009B1A62461B190199D3602843F318136182
:1012240005B0F0BCBB46B246A946A046F0BD1425A5
:10123400A8460435804E0195FFF727FB022A00D10A
:10124400DFE224229046043201927E4E263AFFF7D2
:101254001CFB023C624254417A4962428A467A4CFF
:101264003F18224052449A469C124346821A121B4B
:1012740092199244DC1153461C1B4B4644441E19DC
:1012840008232801184353469B1025119B185B190A
:1012940035125B19DB19002B00DCF9E20125684BE0
:1012A400AAE7023E31004E424E41674976420E4063
:1012B40064492D0189464E449912861B761A41468B
:1012C40036199B19CC111C1BA04441460824091152
:1012D4008946254342449C10A41911124C44894662
:1012E40038184C442418AB46002C00DCD3E2544993
:1012F4000124894637E7023E31004E424E415249AD
:1013040076420E404F498A4656449912A41B641AE9
:1013140044440099E3185E1A4E44B04641460826F8
:1013240009118946354342449E10361911124E4420
:1013340089464E443618AB46002E00DC49E240494B
:1013440001268946C3E60238411E88413B49404292
:1013540008403E492D01884640449912201A401AFB
:1013640081444B44F011181A80190826011188464B
:10137400354312189E104E441112464488463C19B7
:1013840046443619AB46002E00DC88E22C4901267F
:10139400884648E6022800D172E22A49022089469A
:1013A400FAE5022800D167E2264902208846C9E509
:1013B400022800D15CE223490220894698E50228EC
:1013C40000D151E21F490220884667E5022800D176
:1013D40046E21C490220894636E5023E751EAE41AE
:1013E4001A4975428A464146144E00913540554487
:1013F4009E12651BAD1BA9444B44D5115D1BAE1851
:101404008219981035114844401915123C19401995
:101414000019002800DC1EE2094901208846E9E49D
:101424002421009104318846022E00D10FE205499F
:10143400022689469CE4C04600FF7F00B97A140066
:1014440047846B00B97B94FF4785EBFF000180FF65
:10145400023E35006E426E41F24D76422E40F24D10
:101464006418AA4656449D128E1B761B4546B14409
:101474004B44EE119E1BB044110108224546114312
:101484009A102E1140444A449219061292191219C4
:10149400002A00DCD7E10126E44A3CE4023E3500A0
:1014A4006E426E41DF4D76422E40DF4D1201A94659
:1014B4004E449D128E1B761B5546B0444344EE1198
:1014C4009E1BB2440826324317005246121191461D
:1014D40050449E10464402124E44914661184E44B4
:1014E4007618002E00DC87E1D04A01269146FFF7EA
:1014F400C9FB023E35006E426E41CA4D76422E4013
:10150400C94D1201A84646449D128E1B761B4D46BA
:10151400B2445344EE119E1BB144082632431700D3
:101524004A461211904648449E10564402124644BC
:101534009046611846447618002E00DC57E1BB4AF9
:1015440001269046FFF746FB023E35006E426E418F
:10155400B44D76422E40B44D1201AA4656449D1213
:101564008E1B761B4546B1444B44EE119E1BB04482
:1015740008263243170042461211924640449E10F8
:101584004E44021256449246611856447618002E70
:1015940000DC27E1A54A01269246FFF7CDFA023E78
:1015A40035006E426E419F4D76422E409E4D120193
:1015B400A9464E449D128E1B761B5546B0444344A7
:1015C400EE119E1BB24408263243170052461211F4
:1015D400914650449E10464402124E44914661186E
:1015E4004E447618002E00DCF7E0904A012691461E
:1015F400FFF754FA023A551EAA418D4D52422A4031
:101604008C4DA9464A449D128A1A521B9244534453
:10161400F2119A1A96194546022215432A009D1082
:10162400A8463511A94680190512D044C844A946D4
:101634006118C84488444546002D00DCEEE07B4D2B
:10164400A846FFF7B6F9022A00D1E1E0774A9D12D5
:101654008A18521B914681444B44F2119A1A9619E6
:1016640052463011804697199A104A44381242441F
:101674008046611842445218002A00DCA2E0019A14
:1016840090466A4A92460122FFF747F9022A00D19E
:10169400FAE0654A92460222FFF73FF9624A0226BF
:1016A4009146FFF7FBF9604A02269046FFF7A8F936
:1016B4005D4DA84645464D1BA8469D12A946454684
:1016C4004F46ED1BA846C2445344F5115D1BA84682
:1016D4004644B14608261201324317004A46121105
:1016E400904648449E10564402124644904661185F
:1016F40046447618002E00DCA0E04C4A01269046B1
:10170400FFF77EF90226484AFFF705FB464A022600
:101714009146FFF7B7FA444A02269046FFF75AFA71
:10172400414A02269246FFF707FA3F4902208846BB
:10173400FFF760FB3F498A4699125444641A4444B3
:101744000099E318591A88469910C84489464146B5
:1017540009118A4642441112A144D1448A46D14413
:101764008144494600292ADC2F4902268946AEE4F1
:101774000125314B40E5304901248946F3E42E4DDF
:10178400A946FFF7A4F82C498946FFF7F1FA2A493C
:101794008846FFF783FB28498946FFF755FB26490E
:1017A400012688463FE424498946FFF7F5FB224990
:1017B4008846FFF7C7FB20498946FFF799FB1E4976
:1017C400894684E4019A90461A4A92460222FFF717
:1017D400A4F818490226894679E4164A0226914655
:1017E400FFF75CF9134A02269246FFF7A5F9114A5E
:1017F40002269046FFF7EEF90E4A02269146FFF7BD
:1018040041FA2425A84604350A4E0195FFF73DF810
:10181400019DA846074DA946FFF759F8054DA8466E
:1018240048E7C0464785EBFFB97B94FF47846B00CC
:10183400B97A1400000180FF00FF7F001A4A0226D3
:101844009046FFF7DDF80226174AFFF764FA1649B7
:101854008946FFF78DFA144902208846FFF7CAFA31
:1018640011498946FFF7F0FA0F498846FFF716FB3E
:101874000D498946FFF73CFB0B498846FFF762FB9D
:1018840009498946FFF788FB07488246FFF745F870
:101894000225054BB0E404490224894663E4024965
:1018A40002268846FFF7BFFB000180FFF0B55746CC
:1018B4004E464546DE46E0B55316994685B002923B
:1018C4000269046892464C440D1B0160C168436878
:1018D4000A1190469C465246836807004669981050
:1018E4006044121240449046404400196D1100288F
:1018F40001DC00F030FD1422904604320392012EE4
:1019040001D100F025FD0126EC489A12201A801A14
:1019140060441B18CA119A1A94468C445146A24634
:101924009C10A34662466144834414110A125C4429
:101934009346AA445C445444002C01DC00F052FF5A
:10194400012E01D101F000F80126DC4C5246141B93
:101954009A12A41A624620181B18D4111C1B644442
:101964009A1094462211934609190A128444DC44BD
:101974009346AA44DC44D44462460191002A01DC23
:1019840000F053FF012E01D000F04AFFCC4A9446E8
:1019940061465246521A94469A12934662465946F2
:1019A400521A94466044C318E2119A1A9446019A52
:1019B4006444A11842463243920090469A109446D9
:1019C4002211934684440A12DC449346AA44DC441C
:1019D400D4446246002A01DC00F0DAFE013E721EA5
:1019E4009641B84A76421640B54A944652466644F1
:1019F400961B9A12B61A30181B18E6119E1B34193E
:101A040042460126324393469A1094462211904648
:101A140009190A128444C4449046AA44C444D444D0
:101A24006246002A01DC00F014FFA54A944666468B
:101A34005246921B94469A12904662464646921B20
:101A44009446524684446344E011181A0419081950
:101A5400A9185A460426120116439A1090462211D8
:101A64009246E0440212D0449246D044884442460E
:101A74000196002A01DC00F0E6FE914A924601221A
:101A8400904652468A1A92469A12934652465E46A7
:101A9400921B9246D4446344E2119A1A92464246F7
:101AA400019E544416439A109246221193460019FB
:101AB4000212E244DA4493466918DA448A445246EC
:101AC4000196002A01DC00F027FE012252429246D0
:101AD400D044464672427241524290467A4A9246F5
:101AE4004246564632409046744A9246D044424654
:101AF4008A1A90469A12924642465646921B90463D
:101B0400C4446344E2119A1A90460426019A444458
:101B1400120116439A10904622119246201802127E
:101B2400E044D04492466918D04488444246019621
:101B3400002A01DC00F081FE614A924601229046AF
:101B440052468A1A92469A12934652465E46921B0F
:101B54009246D4446344E2119A1A92464246019E44
:101B6400544416439A1092462211934600190212C5
:101B7400E244DA4493466918DA448A4452460196A8
:101B8400002A01DC00F08CFD012252429246D0442E
:101B9400464672427241524290464B4A92464246EF
:101BA400564632409046454A9246D04442468A1AA6
:101BB40090469A12924642465646921B9046C44418
:101BC4006344E2119A1A90460426019A444412018D
:101BD40016439A1090462211924600190212E044CC
:101BE400D04492466918D044884442460196002A5B
:101BF40001DC00F077FE324A9246012290465246BA
:101C04008A1A92469A12934652465E46921B92460E
:101C1400D4446344E2119A1A92464246019E5444C3
:101C240016439A1092462211934620180212E24457
:101C3400DA4493466918DA448A4452460196002AE3
:101C440001DC00F0F3FC012252429246D0444646A5
:101C540072427241524290461B4A9246424656464E
:101C640032409046154A9246D04442468A1A9046DB
:101C74009A12924642465646921B9046C444634486
:101C8400E2119A1A90460426019A444412013243FE
:101C940090462211924620189E1066440212564421
:101CA4009246691856447618002E01DC00F014FEA2
:101CB400034A92460122019208E0C04647846B0021
:101CC40000FF7F004785EBFFB97A140052468A1A59
:101CD40092469A12934652465E46921B9246D444CA
:101CE4006344E2119A1A92464246019E5444324396
:101CF40090469A1092462211934600190212E24429
:101D0400DA4493466918DA448A445246002A01DCCC
:101D140000F05FFC013E320056425641E74A7642EB
:101D24001640E74A924656449A128E1BB61A6644E7
:101D3400F318E2119A1A94464246A4440424120168
:101D44002243904662461211924660449C10A419A4
:101D5400021254449246691854446418002C01DC5D
:101D640000F0B4FDD74A92460122019252468A1AE3
:101D740092469A12934652465C46121B924662461B
:101D840056449B19D2119A1A92464246019CD44455
:101D9400224390469A10924662461211934660443A
:101DA4000212B244DA4493466918DA448A44524629
:101DB400002A00DCE1E3013C220054425441BF4AC2
:101DC40064421440BE4A924654449A120C1BA41A0C
:101DD4006246A619D4114246F3181C1BA4448A4631
:101DE40011016246042412119046604421439C1060
:101DF400A419021244449046AA4444445444002C76
:101E040001DC00F05DFDAF4A904601220192444698
:101E14005246121B90469A12934642465C46121B47
:101E24009046624646449B19D2119A1A90464C46F3
:101E3400019AC4440A43029903920A045216121BDB
:101E440064462411A046AA445244914660449A1020
:101E5400921904124244A04642444A44002A00DC37
:101E64007EE3019A012A01D100F071FD142202924D
:101E740004329046924A92460122019251464C46BF
:101E8400641A99128B4621005C46091B8A466146F6
:101E94005644F318C911591A8A469910D4448A46EB
:101EA400614609118B4660440112B244DA448B4600
:101EB400A944DA44CA445146019C002900DC28E3C1
:101EC400013C621E9441804A644214407D4A90461B
:101ED4004A464444141B9A12A41A6246A6199B1932
:101EE400D4111C1BA44462466044040012119046A1
:101EF40098108019221240449046A9444044484412
:101F0400002801DC00F0F4FC6E4A012090464246B1
:101F14004946891A9A1292460A005146521A904624
:101F240062464946B0444344D6119E1BB4446E18DD
:101F3400614609118A46029A64440243920091461A
:101F44009A104244211252448A4652449219002A59
:101F540000DCD8E2012801D100F005FD0120584A37
:101F64009912B21A521A904462464344D2119A1AF0
:101F7400944422004C460443A146494689008B46BA
:101F840099108946614609118A4662441112C14476
:101F9400D1448A46AC19D144A1444946002900DC05
:101FA400AAE2012801D100F0DAFC45490120894662
:101FB4004946611A894699128A4649465646891BFA
:101FC40089466146C8445E464344C911591A894644
:101FD4000643B100CC448B469910894661460911E9
:101FE4008A4662441112C144D1448A462C19D14410
:101FF400A1444946002900DC77E2012801D100F020
:10200400C2FC2F49012089464946611A8946991222
:102014008A4649465646891B89466146C8445E46F7
:102024004344C911591A89460643B100CC448B462E
:1020340099108946614609118A4662441112C144C5
:10204400D1448A462C19D144A1444946002900DCD4
:1020540044E2012801D100F092FC1949012089468B
:102064004946611A894699128A4649465646891B49
:1020740089466146C8445E464344C911591A894693
:102084000643B100CC448B46991089466146091138
:102094008A4662441112C144D1448A462C19D1445F
:1020A400A1444946002900DC05E2012801D100F0E1
:1020B40062FC03490120894608E0C046B97A14004D
:1020C40047846B0000FF7F004785EBFF4946611A98
:1020D400894699128A4649465646891B894661466D
:1020E400C8444344C911591A8946CC44614609116C
:1020F4008A46A14662449C104444111254448A46C0
:102104005E46A94454444C440643002C00DCA8E138
:102114000138441EA041EB49EB4C8A4649464042F3
:10212400044054440C1B61469812241A44441B195D
:10213400C811181A844461460420091188463601DE
:102144000643624498100019111240448846A94479
:1021540040444844B346002801DD00F007FCDB4955
:102164000220884646464946891B884699128A4673
:1021740041465646891B88466146A0444344CC11D7
:102184001C1BA44461465E46A944C91101914946F9
:1021940006436C1831019E1046448A466146B34694
:1021A40062440E1111125E448B465E444E44002E6E
:1021B40000DC2EE10426514631438B46012800D130
:1021C4009BE3C24899124844401A8044019943440D
:1021D400581A84446146091189466244981040445F
:1021E40011124844894648440019002800DCA0E341
:1021F400B449012089464946611A894699128A469A
:1022040049465646891B89466146C8444344C91118
:10221400591A8946CC4462446146914609118A465A
:1022240049469A104244091252448A465E462C1981
:10223400524412190643002A00DCC0E0013842422D
:102244005041A34A40421040A24A360192465044AB
:102254009A12201A801A40441A186346DB11D31AC2
:102264009C44614604230911E144884649461E43BF
:1022740093101B180912434488462C1943441B1914
:10228400B346002B00DD5BE3904B984602234146A6
:10229400611A884691128A4641465646891B8846E9
:1022A40040449046624680444146D2118A1A94447E
:1022B4008A106146E144A2460C1149465E46121852
:1022C40012190C12AA44121952441E43002A4DDD5D
:1022D400013B5A4253417E4A5B421A407D4B55446E
:1022E4009B4653465A449A1A43469B12D21A634653
:1022F40012189044DC1143461C1B0423300164442F
:1023040018434346A14449469B1026119B189B1928
:102314000E129B195B19002B00DD0EE302266B4B9A
:102324004146EB1A8D125B1B9B187B60E211434400
:10233400BB609B1A1B190399FB6030434B447E61BD
:102344003B6105B0F0BCBB46B246A946A046F0BD11
:102354005C48FFF7DAFA2422904604320392022EF4
:1023640000D134E302265948FFF7CFFA023B5A4220
:102374005341554A5B421A40544B55449B4653467D
:102384005A449A1A43469B12D21A6346121890442E
:10239400DC1143461C1B08233001644418434346A4
:1023A400A14449469B1026119B189B190E129B1998
:1023B4005B19002B00DC4FE30126464BB0E70238E3
:1023C4004242504142424048360110403F4A924600
:1023D40050449A12201A801A40441A186346DB119A
:1023E400D31A9C44614608230911E14488464946AE
:1023F4001E4393101B180912434488462C19434466
:102404001B19B346002B00DC29E3324B9846012309
:102414003DE70238464270412C492B4E8B464946D3
:10242400404230405844081A9912401A8044019995
:102434004344581A08265146844431438B46614626
:10244400091189466244981040441112484489464F
:1024540048440019002800DCA1E21E4901208946F5
:10246400C9E60238441EA0411B49194C8A46494614
:102474004042044054440C1B61469812241A4444BC
:102484001B19C811181A844461460820091188468A
:1024940036010643624498100019111240448846DC
:1024A400A94440444844B346002800DCD0E209492A
:1024B4000120884656E6022800D193E2034902200F
:1024C400894603E600FF7F004785EBFFB97B94FF55
:1024D400B97A140047846B00000180FF022800D100
:1024E4007CE2F24902208946BAE5022800D171E271
:1024F400EE490220894687E5022800D1A0E2EB4993
:102504000220894654E5022800D196E20220E74AD7
:1025140026E5023C621E9441E54962428A464946E8
:10252400E44CA944224052449C128A1A121B961964
:1025340062469B19D2119A1A94446044614604007D
:102544009A10081192191218201212184A44002ADB
:1025540000DC6BE242460292D74A01209046D6E460
:10256400019A022A00D159E22422029204329046AE
:10257400CE4A92460222019280E4023C2200544256
:102584005441CE4A64421440C84A924654449A1272
:102594000C1BA41A6246A619D4114246F3181C1B3C
:1025A400A4448A46110162460824121190466044EC
:1025B40021439C10A419021244449046AA44444462
:1025C4005444002C00DC23E2BB4A904601220192D1
:1025D4001DE4023E320056425641B84A7642164045
:1025E400B24A924656449A128E1BB61A6644F3189F
:1025F400E2119A1A94464246A44408241201224342
:10260400904662461211924660449C10A41902122C
:1026140054449246691854446418002C00DCF1E1D7
:10262400A54A924601220192FFF7A0FB02225242E0
:102634009246D044464672427241524290469F4A64
:1026440092464246564632409046984A9246D04474
:1026540042468A1A90469A12924642465646921B1F
:102664009046C4446344E2119A1A9046019A444441
:1026740016010822324390462211924620189E10D9
:102684006644021256449246691856447618002E3F
:1026940000DCB1E1884A924601220192FFF716FB61
:1026A400022252429246D0444646724272415242FB
:1026B4009046824A924642465646324090467B4A6B
:1026C4009246D04442468A1A90469A12924642460C
:1026D4005646921B9046C4446344E2119A1A9046AB
:1026E400019A44441601082216439A109046221176
:1026F400924620180212E044D04492466918D0440D
:10270400884442460196002A00DC6FE16A4A9246F8
:1027140001229046FFF773FA022252429246D044B5
:1027240046467242724152429046644A924642463A
:102734005646324090465D4A9246D04442468A1AF2
:1027440090469A12924642465646921B9046C4447C
:102754006344E2119A1A9046019A444416010822ED
:1027640016439A1090462211924620180212E04411
:10277400D04492466918D044884442460196002ABF
:1027840000DC19E14C4A924601229046FFF7D8F941
:10279400023E721E9641474A76421640444A944687
:1027A40052466644961B9A12B61A30181B18E61144
:1027B4009E1B341942460226324393469A1094468D
:1027C4002211904609190A128444C4449046AA442A
:1027D400C444D4446246002A00DCEAE0364A944603
:1027E400FFF725F9022E00D1ECE06246324C9E122E
:1027F4005444A41B20181B18D4111C1B644422111C
:10280400944609199E100A12361866449446AA443E
:10281400039A6644564490460191002E00DCB9E0C8
:10282400254A01269446FFF7B3F8022E00D10BE1A6
:102834001E4A02269446FFF7ABF81C4A924602222F
:102844009046FFF77DF9194A924602229046FFF717
:1028540018F9164A944666465246921B94469A12B2
:10286400904662464646921B9446524684446344CC
:10287400E011181A04196018A9185A4608261201FA
:1028840016439A10904622119246E0440212D04414
:102894009246D044884442460196002A00DC82E0F5
:1028A400054A924601229046FFF7EBF8B97B94FF64
:1028B400000180FFB97A140047846B004785EBFF61
:1028C400694A904602220192FFF7A1FA664A9246AB
:1028D40002220192FFF74AFA634A924602220192C7
:1028E400FFF7F4F9604A924602229046FFF787F90F
:1028F4005D4A02209046FFF70AFB5C499E128A4615
:10290400D1444946891B89460199C8444344591A0C
:1029140089469910CC448946614609118A46624425
:102924001112C144D1448A46D144A14449460029E4
:102934002DDC4D49022089465DE401264C4BEFE431
:102944004B4B98460123A2E4494CFEF7FFFF133298
:10295400029204329046464A9246FFF78FFA44495F
:102964008946FFF725FB424AFFF7FAFA404901205E
:102974008846FFF7F7FB3E498946FFF7A7FB3C492A
:102984008946FFF76DFB3A498946FFF73DFB384915
:10299400894630E4354A02269446FEF7F9FF334966
:1029A4000220894627E4314A924602229046FFF7E4
:1029B40068F82E4A94464EE72C4A924602229046E4
:1029C400FFF7BEF8039A294C9046FEF7BFFF27484D
:1029D400FEF79BFF25498946FFF716FB23498946E5
:1029E400FFF73EFB21498946FFF770FB1F4A9246D9
:1029F40002229046FFF703F91C4A924602220192F2
:102A0400FFF764F9194A924602220192FFF7AEF9E0
:102A1400164A904602220192FFF7F9F922320292F5
:102A240004329046114A9246FFF728FA424602922F
:102A34000E4A02209046FFF76AFA0C4AFFF790FA12
:102A44000A498946FFF7B4FA084A9446FEF7A0FFFC
:102A5400D0460220FFF786FB0226044B60E4034BBA
:102A640098460223FFF713FCB97B94FF000180FF13
:102A740000FF7F00F0B5DE46454657464E46E0B5BA
:102A8400DD4CDE49A5440024DD4806940AF044F9EF
:102A9400012105000A90DA480AF02EF900280BD02B
:102AA400192002F0E9FED02380221B0692045A6208
:102AB400D4485A6102F006FF0121D1480AF004F912
:102AC4002100CF480AF018F9A042E9D12100CC48EE
:102AD4000AF0FAF8062229002000FDF747FE0E222C
:102AE40029000120FDF742FEC74A9369DB04D7D5CC
:102AF400C64B1360C64B9360C64B13619369002B9E
:102B0400FCDA09200AF0B2FA0028C9D10A300AF026
:102B1400ADFA0028C4D10B300AF0A8FA0028BFD1BE
:102B2400A025BD4BED05EB5801241F00274023428F
:102B3400B6D109300AF08EFA0A200AF08BFA0B207B
:102B44000AF088FA0AF0D8FD87238022DB00E850D7
:102B5400B24B12041A60B24BB24E1A68132353409C
:102B6400DB05B14ADB0D1360B04BB14AFA201A60A1
:102B7400B04A21005A60B04A9C601A61AF4BB04A17
:102B840040001A60AF4A09925A60AF4A9C601A61C9
:102B9400AE4BAF4A1A60AF4A5E609C601A618623EE
:102BA4008022DB009200EA5004F0ECF8AA4B1F21CB
:102BB4000893AA4B3A009846A94B079799464D4665
:102BC400A84B01979A46A84B05970C93A74BA84F7F
:102BD4000393A84B02941293A74B1193A74B9B46C4
:102BE4000A9B0B401393089B1B78DCB29A4200D1DA
:102BF400F5E0002C00D14BE1002399460124434623
:102C04004A4664421A600021181D10325C6105F0C6
:102C140067FF4B4610220021281D2B606C6105F0D4
:102C24005FFF0022002351460A604B60944A0C9BCC
:102C340094461B68724C63445A4253410021DBB2F0
:102C4400200006930AF0E2F9012120000AF0DEF9DF
:102C540030238C4A0A981360D821113B0340F0209A
:102C64006350A53921612350874B616113604A4643
:102C7400039B1A7001230493029300230193059389
:102C8400013307935A4606991268002900D16EE170
:102C9400EFF3108972B611680029FCD0BFF35F8F7F
:102CA40079680B913A7D002A00D0BFE13A69FC684B
:102CB4000D92944200D147E200DCB2E1A21A8A1AD2
:102CC400012A00DCB2E1BB683A680E930F92042B30
:102CD40000D144E20E9B082B00D044E20F9AE3009B
:102CE400944663441A685B68149215930B9B0134F1
:102CF4001B1B5A1E93415B421C405B461B68FC60D5
:102D040010930D9BA34200D1BDE10E9B042B00D177
:102D14001FE20E9B082B00D02FE20F9A51469446D7
:102D2400E30063441A685B680A604B600B9B0134E0
:102D34001B1B5A1E93415B421C400D9BFC60A3422B
:102D440000D1A0E1BFF35F8F0023109A136089F3D1
:102D5400108804F00DF853460CCB99461499159C31
:102D64003368002BFCD000233360099B40461B686A
:102D7400FDF754FD169017913368002BFCD0002307
:102D84003360099B4A46210028001B68FDF746FD75
:102D940018901991049B002B04D1019B059A93422E
:102DA40000D16BE18623019C9B002001C01814AB69
:102DB4009C46364B60449C461022604416A905F09C
:102DC40095FE631C0193202B00D154E100230122C2
:102DD4000293089B1B78DCB29A4200D009E7039B5C
:102DE4001B78002B6ED0002A00D04FE1039B1A7091
:102DF40003F0BEFF0022F6E694FDFFFF142301203A
:102E0400000020508417012000000640A7BFFA00EC
:102E140077779696A10A00003404000050220050EF
:102E24003404005028B701203414005040020050EC
:102E34001C0006402CB7012009D0BF0080020050BE
:102E44003804005030B7012009D83F00C0020050B8
:102E5400182E012009C83F0070BD01201C9B0120D1
:102E6400349B0120684701201CB7012071BD01205B
:102E740010A90120209B0120389B012028A90120B2
:102E84000089FEFF002020500303000000FEFFFF26
:102E9400CC4B012299461B68002193434A4648467D
:102EA4001360002209F0BAFF4B4602221B6801217D
:102EB40093434A4648461360002209F0AFFF039B40
:102EC4001C7095E7002C93D0029B0493079B002B66
:102ED40000D05FE1BB4BDA680F231340062B35D8D3
:102EE400A146029B059C0795002B00D0BCE08623DD
:102EF40021019B00C91814AB9C46B34B61449C460A
:102F040010226144013416A805F0F0FD2300203B93
:102F14005A1E93415B421C40019B1898E31A5A4283
:102F24005341199ADBB294466546A64A55615061ED
:102F3400179D169815611061D0680F220240062A69
:102F4400D2D905944C46079D029304930499002911
:102F540000D01CE1059B019A934200D190E05A46AF
:102F64000791069901231268002900D090E6EFF337
:102F7400108972B611680029FCD0BFF35F8F3A7DC7
:102F8400002A42D1BA683968FC68042A00D1CFE02B
:102F9400082A00D0D1E0E300C9180A684B685146FA
:102FA4000A604B607B680134E31A5A1E93415B420A
:102FB4001C405B463A691B68FC60A24201D10122B5
:102FC4003A75BFF35F8F00221A6089F3108803F00B
:102FD400CFFE534612CB3368002BFCD00023336062
:102FE400099B40461A68FEF761FC169017913368F6
:102FF400002BFCD000233360099B210028001A68B1
:10300400FEF754FC18901991C4E659460968BFF3B9
:103014005F8F0020086089F31088002B00D0E2E560
:10302400D7E70D9A121B012A00D04CE65A461268C3
:10303400BFF35F8F0021116089F31088069A002B7B
:1030440000D0D0E5534612CB3368002BFCD00023CC
:103054003360099B40461A68FEF728FC16901791C6
:103064003368002BFCD0C5E7029304930023079D2B
:103074000594079306E60023019302930122B2E527
:1030840022000791AFE501233B755BE601224D4C1D
:1030940023682000934300222360110009F0BEFE40
:1030A400022223680121934320000022236009F0B7
:1030B400B5FE0023994643464A461A600123424618
:1030C4005B42536149461022129805F009FD4A46B5
:1030D400012349465B422A60119810326B6105F066
:1030E400FFFC0022002351460A604B60374A0C9BC8
:1030F40094461B68494663445A4253412000DBB25C
:10310400069309F083FF0121200009F07FFF30229C
:10311400F0212F4B13981A60A832A050A53A2261CF
:10312400605062612B4A1A604A46039B1A70A1E5FB
:103134005246A3005B58136034E7130063435046C0
:10314400C91805F0D3FC2DE70B9A012A00DDBAE576
:103154006CE70F9AA3009B5852461360E6E5A30060
:103164009B581493C2E50E9A0F9B11009C46614331
:1031740014A8614405F0BAFCB8E50E9A0F9B11003F
:103184009C4661435046614405F0B0FCCEE5002303
:10319400079377E5029B002B05D1059B019A934287
:1031A40005D001236EE5029B079301236AE50F22F4
:1031B400044BDB681340062B00D891E6029B079A68
:1031C400079310E50000205000FEFFFF0089FEFF7A
:1031D4000020205003030000014B18687047C046CC
:1031E4001CB70120014B1878C0B2704770BD012094
:1031F40010B5172002F040FBD024802324061B04C2
:103204000421636202226361164803F083FC164BB7
:10321400164A01201A60802212015A6008229A601C
:1032240000221A61DA6001321A7502F001FC02F020
:103234001FFC0F4B1860042002F01EFB052002F057
:103244001BFB10236362103363620021042002F02D
:1032540001FB0021042002F0FDFA064809F05AFFA0
:1032640010BDC04600808D5B10A901207847012065
:1032740028A90120A52800200122024B1860024B36
:103284001A7070471CB7012070BD01200E4B10B599
:10329400186000F0D9FB0D480268EFF3108C72B689
:1032A4001368002BFCD0BFF35F8F00220121084B71
:1032B4001A61DA6019750368BFF35F8F1A608CF3C3
:1032C4001088044B197010BD1CB7012028A90120D7
:1032D40010A9012071BD012000220E4B10B50E492A
:1032E4001A700E4B01321A700A68EFF3108072B62E
:1032F4001368002BFCD0BFF35F8F00220124084B1E
:103304001A61DA601C750B68BFF35F8F1A6080F373
:10331400108810BD70BD012028A9012071BD0120B5
:1033240010A901200C480268EFF3108C72B61368E0
:10333400002BFCD0BFF35F8F00220121074B1A61E1
:10334400DA6019750368BFF35F8F1A608CF3108815
:10335400034B19707047C04628A9012010A9012009
:1033640071BD0120F0B55746DE464E464546E0B5F0
:1033740091B00C92B94A8246127803910791002ABF
:103384006BD00022995E02201A5E04201B5E521844
:103394005B185142C91109915942C91101911A99F5
:1033A400097849B2002960D0012398460293039B0F
:1033B400002B00DC4FE153460D9300230793A84BE9
:1033C400A84F0893A84B9B46D946C346A74B0593E1
:1033D400A74B06938023039A5B0000929A4200DD78
:1033E40000930C9B042B00D1B1E0029B5446089D32
:1033F400002B00D1E9E0009B0026DB0098469B4BA4
:10340400D0449A469A4B04931BE051461B125A002F
:10341400D21813019B1A019A9B11920088585843A1
:10342400049B995803F0D6FE0F900FA90EA800F044
:1034340067FB0F9B0E9A08342A606B600835A04521
:103444002FD05A4663680E96002ADED00F96ECE71A
:103454004A461268BFF35F8F1360079811B0F0BC3F
:10346400BB46B246A946A046F0BD01201A99029077
:10347400497849B2002905D17E480131824200DBF6
:103484000021029101211A9A8846927852B2002AA8
:1034940000D08CE7774901328B4200DB0022904652
:1034A40085E7C2464B461A681368002BFCD0BFF36D
:1034B4005F8F3B7D002B31D07D6838692E00009BE7
:1034C4001C00AB4200DD2C00BA68361A50433B683E
:1034D4001818B4422CDC6243089905F007FB00225B
:1034E4003B693A757A68E3183B61934201DB9B1AA6
:1034F4003B614B461B68BFF35F8F00221A60079B3A
:103504009C46A44463460793009BAB42A5DC039B03
:103514001B1B0393002B00DD5CE79EE7FD68386905
:10352400854200D194E77E6800DC91E02D1AC6E75D
:10353400089B72439846190005F0D8FAB968A21B93
:103544004A4371433868414405F0D0FAC7E7009B09
:103554000D9C9B009846089DA0441BE03614720005
:10356400921913019B1A019A0599920088589B009D
:103574005843069B995803F02DFE0F900FA90EA8EF
:1035840000F0BEFA0F9B0E9A04342A606B60083573
:10359400A0455AD0029B00202668002B0ED133B2DE
:1035A4005A00D21813019B1A099A05999200885857
:1035B4009B005843069B995803F00CFE5B460E9003
:1035C400002BCBD000230F93D8E7009B274ADB00C6
:1035D4009846099B26499B000A92D258CB58D0445E
:1035E4000B91924604931CE0361272009219130157
:1035F4009B1A019A0A99920088589B1158430B9B75
:10360400995803F0E7FD0F900FA90EA800F078FA7F
:103614000F9B0E9A08342A606B600835A04500D1D0
:103624003FE722680499121253009B181801C01A2C
:1036340053468011584303F0CDFD5B4666680E90F7
:10364400002BD1D000230F93DEE743460D9329E7E7
:10365400451B751B33E700230793FEE670BD01206D
:103664007887012010A9012028A90120D424012051
:103674004423012001CEFFFF204930B50A68EFF34F
:10368400108072B61368002BFCD0BFF35F8F1C4B05
:103694001A7D5D68002A1CD1DA681B692C009A42E5
:1036A40002D09C1A9A4211DC0B68BFF35F8F002290
:1036B4001A6080F31088D0231B061E2C19D91032EF
:1036C4005A61D02320221B069A6130BDD21AAC1A4B
:1036D400EAE70B68BFF35F8F00221A6080F310885B
:1036E400D02310321B069A61D02320221B065A6174
:1036F400EBE710229A61002CE3D1F5E728A9012019
:1037040010A90120642310B5642802DCC343DB172D
:103714000340421E1043074A1C0213601B0606495D
:103724001A0C13430B60054BC00F8C801870587033
:10373400987010BD242E01201C2E012008A9012000
:10374400002807D00222084BFF321A80013AFF3AC0
:103754009A707047054B1B68002BFADD0022024B60
:1037640018809A70F5E7C04608A90120242E01208C
:103774000C4A10B51368C0186423642802DCC343E0
:10378400DB1703401C021360411E1B0608431A0C7E
:10379400054913430B60054BC00F8C80187058709B
:1037A400987010BD242E01201C2E012008A9012090
:1037B400014B18687047C046242E01200020034B9B
:1037C4001856431E9841C0B27047C04608A901204C
:1037D400F0B5C646040000B5006804F091FE324A14
:1037E400324B03F08AFF324B060018680F0003F0D7
:1037F400F7FF02000B003000390003F060FF04F013
:1038040073F8051C04F098FE061C281C04F082FEC4
:10381400071CA068011C04F0A5FD011C301C04F069
:10382400A4FD2449051C606804F09FFD011C224886
:1038340004F0A0FF061C011C281C04F0AAFD311C86
:103844008046281C04F091FDFE218905061C04F025
:1038540089FDFE21051C8905404604F083FD291CD1
:1038640004F083FDC02120610906381C04F091FD99
:10387400291C04F07AFD071C6061FE204146800586
:1038840004F06DFD291C04F070FDA061FE20311CC4
:10389400E761800504F063FD291C04F066FD2062E5
:1038A40080BCB846F0BDC046182D4454FB211940D5
:1038B400282E01200000204200002041D02210B513
:1038C400134B144C186000212000520005F008F935
:1038D4009C21FE23104A9B056250083163502C3111
:1038E4006250083163502C316250083163502C31DE
:1038F4006250083163502C3122606263A2666250C8
:10390400BA225200A360E3632367A35010BDC046EC
:10391400282E0120E497012000007A44F8B507001E
:103924000C1C161C1D1C07283ED82049201C04F022
:1039340067FD002838D11E49201C04F06FFD0028C3
:1039440032D11C49301C04F05BFD00282CD11A49EB
:10395400301C04F063FD002826D11849281C04F00B
:103964004FFD002820D11649281C04F057FD030000
:103974000020002B19D134227A43124954500124D7
:103984008818047314002434466085600B51043491
:103994000B51303204340B518B50037B002B01D07C
:1039A400FFF716FF012000E00020F8BD0000A04151
:1039B40000409C46000040C1000040419A99993E55
:1039C40000002041E497012010B507280BD83422C9
:1039D4005043064B18180173002901D1012010BD72
:1039E400FFF7F6FEFAE70020F9E7C046E497012066
:1039F400D02210B5124C00212000520005F070F8BE
:103A04009C21FE230F4A9B056250083163502C31E0
:103A14006250083163502C316250083163502C31AC
:103A24006250083163502C3122606263A266625096
:103A3400BA225200A360E3632367A35010BDC046BB
:103A4400E497012000007A4410B5234B234C1860FE
:103A5400237B002B02D02000FFF7BAFE4023E35C57
:103A6400002B03D020003430FFF7B2FE7423E35C54
:103A7400002B03D020006830FFF7AAFEA823E35CE4
:103A8400002B03D020009C30FFF7A2FEDC23E35C74
:103A9400002B03D02000D030FFF79AFE88235B0070
:103AA400E35C002B03D0601DFF30FFF791FEA223DF
:103AB4005B00E35C002B04D020003930FF30FFF7BB
:103AC40087FEBC235B00E35C002B04D020006D3038
:103AD400FF30FFF77DFE10BD282E0120E497012062
:103AE400030010B5081E07D0072B05D83422534312
:103AF4000249C91804F0FAFF10BDC046E49701203A
:103B0400F0B5DE464E4645465746E0B589B00690C8
:103B140000680C00079104F093FC051C206804F075
:103B24008FFCE84C061C237B002B00D1DCE3626A8B
:103B3400A16A90468B462369E1699A46894663697E
:103B4400216AA26940460091191C0192029304F073
:103B540020FC5146071C281C04F01BFC011C381CCB
:103B640004F000FC0199071C584604F012FC011CE7
:103B7400381C04F0F7FB4146071C484604F009FCD6
:103B8400011C381C04F0EBFB5946071C009804F098
:103B940000FC011C381C04F0E2FB4346A362236BC7
:103BA40051466562071C301C9B4604F0F2FBE56A33
:103BB4008246291C029804F0ECFB011C504604F0D8
:103BC400D1FB59468246019804F0E3FB011C5046A0
:103BD40004F0C8FB291C8246484604F0DAFB011CA9
:103BE400504604F0BCFB59468146009804F0D1FBD2
:103BF400011C484604F0B3FB40232563E662E35C02
:103C04008046002B00D176E3636CE26D9A46A36C88
:103C1400616D99469346E36C226D0291381C5146BE
:103C24000093019204F0B5FBA66D051C311C4846B7
:103C340004F0AFFB011C281C04F094FB5946051C3E
:103C4400009804F0A6FB011C281C04F08BFB0199CE
:103C5400051C301C04F09DFB011C281C04F07FFB98
:103C64000299051C584604F094FB011C281C04F01E
:103C740076FB5146E665A7658346404604F089FB1A
:103C8400256E8246291C484604F083FB011C5046DD
:103C940004F068FB676E8146391C009804F079FBD8
:103CA400011C484604F05EFB291C061C019804F024
:103CB40070FB011C301C04F052FB391C061C0298DA
:103CC40004F067FB011C301C04F049FB43462366E7
:103CD400742300906566E35C002B00D113E3A36FAB
:103CE4008C279946E36F584698468023E358E55954
:103CF40002939023E2580C3B9246E2580433E15875
:103D040003920491494604F044FB291C061C4046D6
:103D140004F03FFB011C301C04F024FB5146061C3C
:103D2400029804F036FB011C301C04F01BFB0399C1
:103D3400061C281C04F02DFB011C301C04F00FFB96
:103D44000499061C504604F024FB011C301C04F0AA
:103D540006FB5A46E2519822902394269246A25892
:103D6400E550494601900098934604F012FBA5598A
:103D74008146291C404604F00CFB011C484604F013
:103D8400F1FA59468046029804F003FB011C4046B0
:103D940004F0E8FA291C071C039804F0FAFA011C41
:103DA400381C04F0DCFA5946071C049804F0F1FAB4
:103DB400011C381C04F0D3FA5346E550009B0290D2
:103DC400A351A823E35C002B00D1A5E2AC23E35864
:103DD400C4229946B023E35892469846B423E35844
:103DE400A2580393B8239346E2580433E158C027FA
:103DF400019805914946049204F0CBFAE559061C52
:103E0400291C404604F0C5FA011C301C04F0AAFA2F
:103E14005946061C039804F0BCFA011C301C04F03B
:103E2400A1FA0499061C281C04F0B3FA011C301CE6
:103E340004F095FA0599061C584604F0AAFA011CE8
:103E4400301C04F08CFA5246A550019AC826E2515F
:103E5400CC229246A258494600900298934604F018
:103E640098FAA5598146291C404604F092FA011C8F
:103E7400484604F077FA59468046039804F089FAD4
:103E8400011C404604F06EFA291C071C049804F037
:103E940080FA011C381C04F062FA5946071C059884
:103EA40004F077FA011C381C04F059FA5346E55023
:103EB400029B0390A351DC23E35C002B00D134E28A
:103EC40002E0C046E4970120E023E358F822994633
:103ED400E423E35892469846E823E358A258029311
:103EE400EC239346E2580433E158F42700980591F3
:103EF4004946049204F04DFAE559061C291C404633
:103F040004F047FA011C301C04F02CFA5946061C34
:103F1400029804F03EFA011C301C04F023FA0499C0
:103F2400061C281C04F035FA011C301C04F017FA96
:103F34000599061C584604F02CFA011C301C04F0A8
:103F44000EFA5246A550009AFC26E25180225200F5
:103F54009246A258494601900398934604F019FAF0
:103F6400A5598146291C404604F013FA011C484611
:103F740004F0F8F959468046029804F00AFA011C44
:103F8400404604F0EFF9291C071C049804F001FAD8
:103F9400011C381C04F0E3F95946071C059804F089
:103FA400F8F9011C381C04F0DAF95346E550039B78
:103FB4000290A35188235B00E35C002B00D1BEE197
:103FC4008A235B00E358962299468C235B00E358CE
:103FD400520098468E235B00E35892460393902345
:103FE400A2585B009346E2580433E15894270198A1
:103FF40005914946049204F0CCF97F00E559061C6A
:10400400291C404604F0C5F9011C301C04F0AAF92F
:104014005946061C039804F0BCF9011C301C04F03A
:10402400A1F90499061C281C04F0B3F9011C301CE6
:1040340004F095F90599061C584604F0AAF9011CE8
:10404400301C04F08CF95246A550019A9826E2518E
:104054009A2252009246A2584946009002989346EA
:1040640004F097F97600A5598146291C404604F0CE
:1040740090F9011C484604F075F9594680460398A6
:1040840004F087F9011C404604F06CF9291C071C54
:10409400049804F07EF9011C381C04F060F95946B8
:1040A400071C059804F075F9011C381C04F057F935
:1040B4005346E550029B0390A351A2235B00E35CAB
:1040C400002B00D145E1A4235B00E358B0229946BC
:1040D400A6235B00E35852009846A8235B00E358EC
:1040E40092460293AA23A2585B009346E2580433F3
:1040F400E158AE27009805914946049204F049F925
:104104007F00E559061C291C404604F042F9011CB5
:10411400301C04F027F95946061C029804F039F9BA
:10412400011C301C04F01EF90499061C281C04F020
:1041340030F9011C301C04F012F90599061C58468C
:1041440004F027F9011C301C04F009F95246A5506B
:10415400009AB226E251B42252009246A25849462D
:1041640001900398934604F014F97600A55981460A
:10417400291C404604F00DF9011C484604F0F2F8ED
:1041840059468046029804F004F9011C404604F0A4
:10419400E9F8291C071C049804F0FBF8011C381CDE
:1041A40004F0DDF85946071C059804F0F2F8011CE8
:1041B400381C04F0D4F85346E550039B8346A351BE
:1041C400BC235B00E35C002B00D1CCE0BE235B008E
:1041D400E7580433E358CA210093C822C223490094
:1041E4008846520061585B00A6589246E258043350
:1041F4008946E1580433E058039104900199381C2E
:10420400029204F0C6F8311C051C009804F0C1F8B1
:10421400011C281C04F0A6F84946051C029804F069
:10422400B8F8011C281C04F09DF80399051C301CE7
:1042340004F0AFF8011C281C04F091F80499051C43
:10424400484604F0A6F8011C281C04F088F84346EC
:10425400E6505646019B5946A351CE235B0099462E
:10426400E358051C381C9A4604F093F80836B04607
:10427400A659071C311C009804F08BF8011C381C4B
:1042840004F070F85146071C029804F082F8011CEF
:10429400381C04F067F8311C071C039804F079F803
:1042A400011C381C04F05BF85146071C049804F008
:1042B40070F8011C381C04F052F84B465A46E6507C
:1042C4004346071CE250281C04F0DCF8069B1860E7
:1042D400381C04F0D7F8079B186009B0F0BCBB4643
:1042E400B246A946A046F0BD4023E35C80462F1C9D
:1042F400002B00D088E4434600937423E35CBB4660
:10430400002B00D0EBE4009B02935B460193A823AF
:10431400E35C002B00D059E5029B0393019B0093BF
:10432400DC23E35C002B00D0CEE5039B0293009BCF
:10433400019388235B00E35C002B00D040E6029BE2
:104344000393019B0093A2235B00E35C002B00D04A
:10435400B9E6039B9B46009B0193BC235B00E35C93
:10436400002B00D032E75F46019DACE7F0B5DE4696
:10437400574645464E46E0B5204A8DB083460F0069
:1043840005F03CFF0500B84230D21D4B00260993CE
:104394001C4BBA460A931C4B1C4C0B9302E034345E
:1043A400AA4523D95346A8465B1B9946237B0A9FFB
:1043B400D8440136002B00D00B9FA06804F0A0F86D
:1043C40006900791606804F09BF8049005912068BA
:1043D40004F096F8330002900391099A4946404646
:1043E400009705F00BFF2D18082ED8D10DB0F0BCA6
:1043F400BB46B246A946A046F0BDC0469C17012064
:10440400AC1701209817012094170120E49701208C
:104414000FB4802110B5C2B044AB04CB490002A84C
:10442400019305F0FFFE041E04DC42B010BC08BC7E
:1044340004B01847002007F085FE0028F5D02200BC
:1044440002A9002007F022FFEFE7C046F0B5DE46E0
:104454004E4657464546E0B5C34CC44EA5443100CC
:1044640009F080F9041E27D0C1490AF0E7F90028B1
:1044740000D114E12378652B27D02000BD490AF030
:10448400DDF9002800D137E12000BB490AF0D6F954
:10449400002800D1E6E12000B8490AF0CFF900284D
:1044A40000D102E22000B6490AF0C8F9002800D180
:1044B400B3E1B448FFF7ACFF85239B009D44F0BCF7
:1044C400BB46B246A946A046F0BD6378712BD4D151
:1044D400A378002BD1D13100002009F043F9041E48
:1044E40000D123E3A8490AF0A9F9002800D1E8E2A1
:1044F4002000A6490AF0A2F9002800D1F9E2200020
:10450400A3490AF09BF9002800D19DE2A14F2000A5
:1045140039000AF093F9002800D1A3E020009E4955
:104524000AF08CF9002800D19CE020009B490AF095
:1045340085F9051E01D100F00FFC200098490AF00E
:104544007DF9051E01D100F0A9FC200095490AF06F
:1045540075F9002801D100F089FD200092490AF084
:104564006DF9002801D100F0B6FD20008F490AF052
:1045740065F9002800D0EAE3310009F0F3F88C4C27
:104584000500237E002B07D0010020000AF056F915
:10459400002801D100F04EFDEA235B00E35C002B10
:1045A40009D02000BD302900FF300AF047F9002867
:1045B40001D100F03FFDE4239B00E35C002B09D014
:1045C400DE239B002900E0180AF038F9002801D105
:1045D40000F030FD774BE35C002B08D0764B2900CC
:1045E400E0180AF02BF9002801D100F023FDE123A3
:1045F400DB00E35C002B09D0DE23DB002900E0189C
:104604000AF01CF9002801D100F014FD6B4BE35CA7
:10461400002B08D06A4B2900E0180AF00FF9002893
:1046240001D100F007FDA8231B01E35C002B08D097
:10463400644B2900E0180AF001F9002801D100F0C8
:10464400F9FC614BE35C002B08D0604B2900E018B7
:104654000AF0F4F8002801D100F0ECFC5C48FFF704
:10466400D7FE29E73100002009F07CF8002800D1AA
:1046740063E10BF05FF93900050020000AF0DEF871
:10468400414241410400C9B2681EFFF79DF9002868
:1046940000D10CE3002C00D006E34E480AE73100B9
:1046A40009F060F8041E00D170E10378652B03D192
:1046B4004378712B00D11DE120002E490AF0BEF889
:1046C400002800D136E220002B490AF0B7F8002870
:1046D40000D1C8E2200029490AF0B0F8002800D12E
:1046E4002FE1200026490AF0A9F8002800D19BE117
:1046F4003948FFF78DFEDFE6310009F033F8041E78
:1047040000D1C3E220490AF099F8002800D1FAE167
:1047140020001F490AF092F8002800D1DAE123783A
:10472400752B5FD16378702B5CD1A378002B59D1A2
:104734002A4D3100002009F015F8002800D1F3E1DA
:104744000BF0F8F8061E00DAEEE1290020000AF06A
:1047540075F8002800D176423000FFF709F82048A8
:10476400FFF756FEA8E6C046ECFDFFFF0018012047
:10477400081801204C1A0120541A0120581A01204B
:10478400601A0120801F0120B01A0120B81A0120EC
:10479400CC1A0120241B01202C1B0120601B0120AA
:1047A400BC1B0120F41B0120201C0120441C0120FF
:1047B4003CA901204C05000034050000C408000099
:1047C400AC080000680A00003C0C0000240C000047
:1047D400CC1B0120D0170120681A0120F81C0120ED
:1047E400001D0120DD4D200029000AF027F80028D3
:1047F4009FD02000DA490AF021F8002800D180E295
:104804002000D8490AF01AF8002800D039E2FEF74F
:1048140097FFD548FFF7FCFD4EE6310008F0A2FFF4
:10482400041E00D17FE2D1490AF008F8002800D123
:1048340094E02000CE490AF001F8002800D142E2B9
:104844002000CC4909F0FAFF002800D154E22000EE
:10485400C94909F0F3FF002800D12FE2C748FFF748
:10486400D7FD29E6310008F07DFF041E00D164E283
:10487400C34909F0E3FF002874D02000C14909F0BE
:10488400DDFF00286ED02000BF4909F0D7FF0028C3
:1048940000D157E22000BD4909F0D0FF002800D123
:1048A4001BE2BB48FFF7B4FD06E6310008F05AFFEF
:1048B400041E00D1EDE2B24909F0C0FF002800D186
:1048C40006E22000B34909F0B9FF002800D120E234
:1048D4002000B14909F0B2FF002800D1BAE120005C
:1048E400AE4909F0ABFF002800D1B3E1AC48FFF7B3
:1048F4008FFDE1E58378002B00D0DDE6A948FFF7C2
:1049040087FDA948FFF784FDA848FFF781FDA84863
:10491400FFF77EFDA748FFF77BFDA748FFF778FD6B
:10492400A648FFF775FDA648FFF772FDA548FFF7F7
:104934006FFDA548FFF76CFDBEE5A448FFF768FDD1
:10494400BAE5A348FFF764FDA248FFF761FDA2485A
:10495400FFF75EFDA148FFF75BFDADE5A048FFF75B
:1049640057FDA9E59F48FFF753FDFEF73BFC0028E0
:1049740000D1A1E19C499D48FFF74AFDFEF72CFCBC
:104984009B4B01001800FFF743FD95E59948FFF79D
:104994003FFD9948FFF73CFD8248FFF739FD824807
:1049A400FFF736FD8148FFF733FD8148FFF730FDFF
:1049B4008048FFF72DFD8048FFF72AFD7F48FFF769
:1049C40027FD7F48FFF724FD7E48FFF721FD7E4841
:1049D400FFF71EFD8948FFF71BFD8948FFF718FD07
:1049E4008848FFF715FD8848FFF712FD8748FFF751
:1049F4000FFD8748FFF70CFD8648FFF709FD864841
:104A0400FFF706FD8548FFF703FD8548FFF700FD26
:104A14006F48FFF7FDFC6F48FFF7FAFC6E48FFF79D
:104A2400F7FC6E48FFF7F4FC7E48FFF7F1FC7E4884
:104A3400FFF7EEFC7D48FFF7EBFC7D48FFF7E8FC51
:104A44007C48FFF7E5FC37E5310008F08BFE3100C8
:104A54000400002008F086FE31000500002008F064
:104A640081FE31000700002008F07CFE0600002CC7
:104A740045D0002D43D0002F41D000283FD0200046
:104A84000AF058FF0400280008F076FE02F02CFF1C
:104A9400051C380008F070FE02F026FF071C3000E9
:104AA40008F06AFE02F020FF3A1C031C291C601E59
:104AB400FEF734FF002800D030E15F48FFF7A8FC80
:104AC400FAE4802104A88900FFF750FC04A8FFF74A
:104AD4009FFCF1E4310008F045FE002800D127E1F5
:104AE4000AF028FF642800D8D5E05448FFF790FC6A
:104AF400E2E4FEF77DFF5248FFF78AFCDCE451480C
:104B0400FFF786FCD8E4FEF753FE4F4B0100180074
:104B1400FFF77EFCFEF752FE002800D1C2E03249C6
:104B24004A48FFF775FCC7E405260EE64848FFF738
:104B34006FFCC1E43148FFF76BFC3148FFF768FCB8
:104B44003048FFF765FC3048FFF762FC2F48FFF759
:104B54005FFC2F48FFF75CFCAEE4C046F81C012064
:104B6400141D01202C1D0120341D0120D81E0120FC
:104B7400F81E0120181F0120401F0120681F01207A
:104B8400B01A01207C1D0120BC1D0120EC1D012058
:104B9400081E01205C1E0120B81A0120841E012079
:104BA400A41E01203C180120481801206C18012083
:104BB4008018012094180120A0180120BC1801209D
:104BC400D8180120EC18012008190120341B0120F9
:104BD400CC190120DC190120EC190120FC19012059
:104BE400DC1E0120841D0120F8170120941D0120E2
:104BF400A41D012010180120281801201C190120CF
:104C04002C19012044190120581901207019012080
:104C140080190120901901209C190120AC19012050
:104C2400BC1901200C1A0120141A0120201A012099
:104C34002C1A01203C1A0120FC1A0120D01C01204E
:104C4400C01A0120D01A0120981C0120A81C0120A0
:104C5400981A0120D548FFF7DBFB00220021002031
:104C640002F0D4F828E4D248FFF7D2FBD148FFF78A
:104C7400CFFBD148FFF7CCFBD048FFF7C9FBFFF7C8
:104C84001BFCCF48FFF7C4FBFFF716FCCD48FFF72A
:104C9400BFFBFFF711FCFEF735FDCB48FFF7B8FB70
:104CA400FFF70AFCC9493BE7C948FFF703FCC948B9
:104CB400FFF7AEFBFFF700FCC4495CE6C648FFF70C
:104CC400A7FBFFF7F9FBC548FFF7A2FBFFF7F4FBCF
:104CD400C348FFF79DFBFFF7EFFB01F049FDFA2204
:104CE4000023920002F0DCFABE4C02000B0020000C
:104CF400FFF78EFBFFF7E0FBBB48FFF789FBFFF7ED
:104D0400DBFB0130FEF71CFDB848FFF781FBFFF722
:104D1400D3FBB748FFF77CFBFFF7CEFBB548FFF7A3
:104D240077FBFFF7C9FBB448FFF772FBFFF7C4FB3F
:104D3400B248FFF76DFBFFF7BFFBB148FFF768FB15
:104D4400FFF7BAFBAF48FFF763FBFFF7B5FBAE48CD
:104D5400FFF75EFBFFF7B0FB3100002008F002FD17
:104D6400061E00D131E20378002B00D12DE2A74CBE
:104D7400277E002F07D00100200009F05FFD814647
:104D8400002800D198E2EA235B00E35C9A46002BFA
:104D940008D02000BD303100FF3009F04FFD00285D
:104DA40000D145E3E4239B00E35C9946002B08D043
:104DB400DE239B003100E01809F040FD002800D1FB
:104DC40081E3934BE35C9846002B07D0914B310071
:104DD400E01809F033FD002800D17BE3E123DB0078
:104DE400E35C9B46002B08D0DE23DB003100E01897
:104DF40009F024FD002800D172E3874BE35C0293A1
:104E0400002B07D0854B3100E01809F017FD00286E
:104E140000D16CE3A8231B01E35C0393002B07D0B0
:104E24007F4B3100E01809F009FD002800D136E37A
:104E34007C4BE35C0193002B07D07B4B3100E018E3
:104E440009F0FCFC002800D12FE3002F00D117E368
:104E54005346002B00D110E34B46002B00D109E34D
:104E64004346002B00D102E35B46002B00D1FBE25A
:104E7400029B002B00D1F4E2039B002B00D1EDE256
:104E8400019B002B00D1DEE26848FFF7C1FAFFF76F
:104E940013FB6748FFF7BCFAFFF70EFB3100002055
:104EA40008F060FC594C0600237E002B05D001005D
:104EB400200009F0C3FC00285ED0EA235B00E35C19
:104EC400002B08D02000BD303100FF3009F0B6FCC3
:104ED400002800D1F1E2E4239B00E35C002B08D01E
:104EE400DE239B003100E01809F0A8FC002800D163
:104EF400E5E2474BE35C002B07D0464B3100E0185A
:104F040009F09CFC002800D1DBE2E123DB00E35C38
:104F1400002B08D0DE23DB003100E01809F08EFC02
:104F2400002800D18BE23C4BE35C002B07D03B4BC9
:104F34003100E01809F082FC002800D181E2A823A6
:104F44001B01E35C002B07D0354B3100E01809F05E
:104F540075FC002800D1AEE2324BE35C002B01D19A
:104F6400FFF77CFB304B3100E01809F067FC0028A8
:104F740001D0FFF773FB0730C3001B1A1B011B1A78
:104F84009B001C33E41809E02800A36862682168C8
:104F9400FEF7C4FC01353434082D62D0237B002B8A
:104FA400F2D100212800FEF70FFDF3E78C1E01204B
:104FB400901901209C190120AC190120BC19012071
:104FC400481D01207C1C0120E81C0120FC17012045
:104FD400E4170120501B0120481F0120FC1E012062
:104FE4003C1E0120F41D0120201F01201C1D012056
:104FF400641E0120141B0120C01E0120B41C0120CA
:10500400641D0120C41D0120641C01203CA9012051
:105014004C05000034050000C4080000AC08000082
:10502400680A00003C0C0000240C0000881B0120CE
:10503400201E01208C4C29001722200008F062FB5E
:105044008A4D012328000026894A21000CC017221A
:10505400E67508F057FB8748EE77FFF7D9F9FFF7B5
:105064002BFA8548FFF7D4F9FFF726FA834C267EFE
:10507400002E00D0F0E0EA235B00E75C002F00D0B4
:10508400E1E0E4239B00E75C002F00D0D3E07C4BFD
:10509400E75C002F00D0C6E0E123DB00E75C002FD3
:1050A40000D0AEE0774BE35C002B00D092E0A82365
:1050B4001B01E35C002B00D0ABE0734BE35C002BE3
:1050C40000D0CFE0002E01D0FFF7F6F96F48FFF7CC
:1050D4009FF9FFF7F1F9310008F044FB674C050034
:1050E400237E002B05D00100200009F0A7FB002837
:1050F4005ED0EA235B00E35C002B08D02000BD30C7
:105104002900FF3009F09AFB002800D1BBE1E42319
:105114009B00E35C002B08D0DE239B002900E018F1
:1051240009F08CFB002800D1AFE1554BE35C002B68
:1051340007D0574B2900E01809F080FB002800D164
:10514400A5E1E123DB00E35C002B08D0DE23DB00D8
:105154002900E01809F072FB002800D199E1494BBD
:10516400E35C002B07D04B4B2900E01809F066FBE9
:10517400002800D18FE1A8231B01E35C002B07D09A
:10518400454B2900E01809F059FB002800D184E1BF
:105194003D4BE35C002B01D1FFF760FA3F4B290044
:1051A400E01809F04BFB002801D0FFF757FA07304D
:1051B4000022C3001B1A1B011B1A9B00E31838486A
:1051C4001A76FFF725F9FFF777F93648FFF720F944
:1051D400FFF772F92F4B344DE1182800FFF718F947
:1051E400A8231B01E35C002B14D1274BE35C002BA9
:1051F40001D1FFF761F928002C49FFF709F9FFF7FE
:105204005BF9294D183B2800E118FFF701F93E002E
:1052140048E7254D264C28002100FFF7F9F8254BD7
:105224009C466444E1E71A4B1F4DE1182800FFF740
:10523400EFF83E0030E71C4D183B2800E118FFF75B
:10524400E7F83E0023E72100174DBD312800FF3168
:10525400FFF7DEF83E0014E7134D21002800FFF7A6
:10526400D7F808E7104DC6E7009B012068370120F6
:10527400504853464C1C0120E01B01203CA901204E
:105284004C050000C40800003C0C00000C1C01206C
:1052940034050000AC080000680A0000240C00007B
:1052A400301C0120701B0120041C012060B501206A
:1052B400A4B3012098F5FFFF0027B846E019172290
:1052C400310008F01FFA4A4643469B1A1B019B1AF9
:1052D40000229B00E318DA751C3701321A76E419B0
:1052E400210028000135FEF7FBFB3434082DF7D1EB
:1052F400824B834A1C0018000193012381490CC08E
:10530400172208F0FFF90023B822A4462421E377EA
:10531400402352007C4F90467C4A3E003D0061444D
:105324006244894693469A4638364434D435B84460
:105334004A46390020003B78183913701C3817226C
:1053440008F0E0F94B460022DA764A467B68D361DE
:10535400BB6828222360FB6863603B7CBD372372F3
:105364003368FF37E36073682361B3686361337B39
:105374002376736BE361B36B2362F36B636253460F
:10538400F35CA354B36E1032E362F36E2363336FA2
:1053940063637423F15CBD36A1542A68297BE263FC
:1053A4006A68FF362264AA6862644822A1546A6B60
:1053B400E264AA6B2265EA6B62655246A95C5822D4
:1053C400A154AA6EE265EA6E22662A6F6266EA5CFE
:1053D4000C3BE25443461B68BD35E36643465B68B9
:1053E400FF35236743469B68636743461A7B7823EC
:1053F400E25424339C462133FF33E1449C469C34DD
:10540400E0445C4594D1EFF3108472B680214048A7
:1054140049010BF0E9FB802201993D4852010BF050
:105424002BFC84F310883B48FEF7F2FFFFF744F8A7
:105434000123DE279946073398467F003EE7042080
:105444009AE5052098E5072399464B464A46DB0032
:1054540098469B1A1B019B1A9F002FE70623994627
:10546400F3E705239946F0E704239946EDE7032380
:105474009946EAE702239946E7E701239946E4E7D8
:1054840000239946E1E7012092E6022090E60320FA
:105494008EE604208CE605208AE6062088E60623AC
:1054A40099462A3398461C4F08E707239946313317
:1054B40098461A4F02E706205EE501205CE50220CB
:1054C4005AE5032058E50223DE2799460E33984611
:1054D400BF00F3E60323994615339846104FEDE6D3
:1054E4000423DE2799461C339846FF00E6E605238D
:1054F4009946233398460B4FE0E6C04668370120AF
:1055040050485346009B012054A901202405000063
:1055140000F01F00A01B0120680A0000240C0000FA
:1055240034050000AC080000F8B50022DE465746FA
:105534004E464546694BE0B51A60694B694C1A7092
:10554400802220005201684903F0D0FA674B226898
:105554009A4202D16368012B19D0802200212000D5
:10556400520103F0BDFA0123604A22606360EFF345
:10557400108572B680215E4849010BF035FB80220C
:1055840021005B4852010BF077FB85F31088594BDF
:10559400594F9A461E001D00AA235B0053449846A7
:1055A400DE231B01534499460023B8353C009B4637
:1055B4002B00203655462034BA4637001E0010E032
:1055C4002B709C239C462133FF33E2449C46BD351B
:1055D400BD37BD36FF359C34FF37FF36E0444D45BB
:1055E4006ED053461B781A00511E8A412A76002B2E
:1055F400E6D0210017221C39280008F083F85B4606
:10560400EB755346DB69EB6123683B6063687B6041
:10561400237A5A1E93413B72E3683B6323697B639D
:105624006369BB63237E5A1E93413C22BB54E369E6
:105634007B66236ABB66636AFB662823E35C5A1EA7
:1056440093417022BB54E36A3360236B7360636BD2
:10565400B3603823E35C5A1E93413373E36B4022F7
:105664007363236CB363636CF3634823E35C591E75
:105674008B41B354E36CB366236DF366636D336798
:105684005823E35C591E8B41742173544146E36DE6
:105694000B60236E4B60636E8B606823E35C591E62
:1056A4008B4141460B73E36E4B63236F8B63636FD4
:1056B400CB637823E35C591E8B4141468B5480E7CE
:1056C4000E4C172220000E4908F01CF80023E37545
:1056D400F0BCBB46B246A946A046F8BDFCA80120D2
:1056E4007CA801206837012000F01F105048534661
:1056F40000F01F003CA901208C370120009B0120F1
:1057040070370120F0B5C64600B5002082B006F01F
:1057140019FD002803D102B080BCB846F0BD0020BA
:1057240006F026FD0028F6D06B46DC1D284B294DDB
:105734009846294E01222100002006F023FD01286D
:10574400E9D123782A680D2B0CD00A2B0AD0082B18
:1057540015D07F2B13D0511C7F29EBD829601E490B
:105764008B54E7E7002A0FD1002006F0EBFC002859
:10577400E0D00C224146002006F088FDDAE7002A3A
:10578400D8D0013A2A60D5E70023B3543378002BEC
:105794000BD032000320114FF95C014001290AD0DB
:1057A400137053780132002BF6D13000FEF74EFE11
:1057B40000232B60D8E72033137053780132002B79
:1057C400EAD13000FEF742FE00232B60CCE7C0464E
:1057D400941F0120FCA801207CA80120C92B0120D2
:1057E40010B5002006F0AEFC002800D110BD0C223C
:1057F4000249002006F04AFDF8E7C046941F012044
:10580400094A83009A1810B5146840225440803223
:105814002240064CC000A44663441A60044B9C46D4
:105824006044416010BDC04604C0014004D0014042
:1058340000400140054B8000C3181B684B40012108
:105844001940034B9C4660440160704704C001400A
:1058540004D00140064B8000C3181B68054A0901A7
:1058640059409446302360440B4003607047C0465F
:1058740004C0014004D001400123D0228340120619
:1058840093629361094A83009A1811684022514037
:1058940080320A400649C0008C4663441A60054BB6
:1058A4009C460523604443607047C04604C00140E1
:1058B40004D00140004001408023DB051868000F3C
:1058C4007047C0460FB400B5084883B004F078FEB2
:1058D400049B002B07D005A91800019104F0D0FC0B
:1058E400034804F06DFE012004F0E2FCA41F012033
:1058F400A01E0120EFF3108072B6034A1368002B38
:10590400FCD0BFF35F8F70472C0100D0BFF35F8FD3
:105914000022024B1A6080F3108870472C0100D0DB
:10592400CB08C25C072301200B4098401040431E63
:105934009841C0B27047C04670B5EFF3108C72B690
:105944000D4D2B68002BFCD0BFF35F8F0724CB08D1
:10595400C618C05C01230C40A3401C000440034251
:1059640007D118433070BFF35F8F2C608CF310881D
:1059740070BD1000FFF7A6FF2C0100D0F8B5474614
:10598400CE46884680B5EFF3108C72B6214D2C6854
:10599400002CFCD0BFF35F8F9A422CD8D408072781
:1059A400055D061901241740BC402C421FD0072175
:1059B4000127894609E0D408055D06194C463900DB
:1059C4001440A1400C00294211D001329342F2D27A
:1059D40001204042BFF35F8F00220E4B1A608CF30C
:1059E400108800280FDBC0BCB946B046F8BD25437B
:1059F40010003570EEE7BFF35F8F00232B608CF34C
:105A04001088012040424346002BECD00898FFF751
:105A140059FFC0462C0100D0044A1078431CDBB265
:105A2400172B00D9102313707047C0462C2E012069
:105A340010B5064B064C82B00100009318221F23B8
:105A44002000FFF79BFF02B010BDC046B41F012029
:105A54008C9A01200021044B044ABFF35F8F02C3D8
:105A64009342FAD17047C046000100D0800100D0B3
:105A7400044B9C4660448000BFF35F8F00230360A7
:105A84007047C04640000034054B064A1360064A7E
:105A9400136053609360D3601361536193617047E3
:105AA4008080808000E400E004E400E01F231840CC
:105AB4001E3B8340002905D0C021044A49005350AD
:105AC40013607047802201498B50FAE700E100E03F
